{
    "_format": "hh-sol-artifact-1",
    "contractName": "ChargepalToken",
    "sourceName": "contracts/token/ChargepalToken.sol",
    "abi": [
        {
            "inputs": [],
            "stateMutability": "nonpayable",
            "type": "constructor"
        },
        {
            "inputs": [
                {
                    "internalType": "uint256",
                    "name": "increasedSupply",
                    "type": "uint256"
                },
                {
                    "internalType": "uint256",
                    "name": "cap",
                    "type": "uint256"
                }
            ],
            "name": "ERC20ExceededCap",
            "type": "error"
        },
        {
            "inputs": [
                {
                    "internalType": "address",
                    "name": "spender",
                    "type": "address"
                },
                {
                    "internalType": "uint256",
                    "name": "allowance",
                    "type": "uint256"
                },
                {
                    "internalType": "uint256",
                    "name": "needed",
                    "type": "uint256"
                }
            ],
            "name": "ERC20InsufficientAllowance",
            "type": "error"
        },
        {
            "inputs": [
                {
                    "internalType": "address",
                    "name": "sender",
                    "type": "address"
                },
                {
                    "internalType": "uint256",
                    "name": "balance",
                    "type": "uint256"
                },
                {
                    "internalType": "uint256",
                    "name": "needed",
                    "type": "uint256"
                }
            ],
            "name": "ERC20InsufficientBalance",
            "type": "error"
        },
        {
            "inputs": [
                {
                    "internalType": "address",
                    "name": "approver",
                    "type": "address"
                }
            ],
            "name": "ERC20InvalidApprover",
            "type": "error"
        },
        {
            "inputs": [
                {
                    "internalType": "uint256",
                    "name": "cap",
                    "type": "uint256"
                }
            ],
            "name": "ERC20InvalidCap",
            "type": "error"
        },
        {
            "inputs": [
                {
                    "internalType": "address",
                    "name": "receiver",
                    "type": "address"
                }
            ],
            "name": "ERC20InvalidReceiver",
            "type": "error"
        },
        {
            "inputs": [
                {
                    "internalType": "address",
                    "name": "sender",
                    "type": "address"
                }
            ],
            "name": "ERC20InvalidSender",
            "type": "error"
        },
        {
            "inputs": [
                {
                    "internalType": "address",
                    "name": "spender",
                    "type": "address"
                }
            ],
            "name": "ERC20InvalidSpender",
            "type": "error"
        },
        {
            "inputs": [
                {
                    "internalType": "address",
                    "name": "owner",
                    "type": "address"
                }
            ],
            "name": "OwnableInvalidOwner",
            "type": "error"
        },
        {
            "inputs": [
                {
                    "internalType": "address",
                    "name": "account",
                    "type": "address"
                }
            ],
            "name": "OwnableUnauthorizedAccount",
            "type": "error"
        },
        {
            "inputs": [],
            "name": "ZeroAddress",
            "type": "error"
        },
        {
            "anonymous": false,
            "inputs": [
                {
                    "indexed": true,
                    "internalType": "address",
                    "name": "owner",
                    "type": "address"
                },
                {
                    "indexed": true,
                    "internalType": "address",
                    "name": "spender",
                    "type": "address"
                },
                {
                    "indexed": false,
                    "internalType": "uint256",
                    "name": "value",
                    "type": "uint256"
                }
            ],
            "name": "Approval",
            "type": "event"
        },
        {
            "anonymous": false,
            "inputs": [
                {
                    "indexed": true,
                    "internalType": "address",
                    "name": "previousOwner",
                    "type": "address"
                },
                {
                    "indexed": true,
                    "internalType": "address",
                    "name": "newOwner",
                    "type": "address"
                }
            ],
            "name": "OwnershipTransferred",
            "type": "event"
        },
        {
            "anonymous": false,
            "inputs": [
                {
                    "indexed": true,
                    "internalType": "address",
                    "name": "sender",
                    "type": "address"
                },
                {
                    "indexed": false,
                    "internalType": "uint256",
                    "name": "amount",
                    "type": "uint256"
                }
            ],
            "name": "TopUp",
            "type": "event"
        },
        {
            "anonymous": false,
            "inputs": [
                {
                    "indexed": true,
                    "internalType": "address",
                    "name": "from",
                    "type": "address"
                },
                {
                    "indexed": true,
                    "internalType": "address",
                    "name": "to",
                    "type": "address"
                },
                {
                    "indexed": false,
                    "internalType": "uint256",
                    "name": "value",
                    "type": "uint256"
                }
            ],
            "name": "Transfer",
            "type": "event"
        },
        {
            "inputs": [
                {
                    "internalType": "address",
                    "name": "_burner",
                    "type": "address"
                }
            ],
            "name": "addBurner",
            "outputs": [],
            "stateMutability": "nonpayable",
            "type": "function"
        },
        {
            "inputs": [
                {
                    "internalType": "address",
                    "name": "_minter",
                    "type": "address"
                }
            ],
            "name": "addMinter",
            "outputs": [],
            "stateMutability": "nonpayable",
            "type": "function"
        },
        {
            "inputs": [
                {
                    "internalType": "address",
                    "name": "owner",
                    "type": "address"
                },
                {
                    "internalType": "address",
                    "name": "spender",
                    "type": "address"
                }
            ],
            "name": "allowance",
            "outputs": [
                {
                    "internalType": "uint256",
                    "name": "",
                    "type": "uint256"
                }
            ],
            "stateMutability": "view",
            "type": "function"
        },
        {
            "inputs": [
                {
                    "internalType": "address",
                    "name": "spender",
                    "type": "address"
                },
                {
                    "internalType": "uint256",
                    "name": "value",
                    "type": "uint256"
                }
            ],
            "name": "approve",
            "outputs": [
                {
                    "internalType": "bool",
                    "name": "",
                    "type": "bool"
                }
            ],
            "stateMutability": "nonpayable",
            "type": "function"
        },
        {
            "inputs": [
                {
                    "internalType": "address",
                    "name": "account",
                    "type": "address"
                }
            ],
            "name": "balanceOf",
            "outputs": [
                {
                    "internalType": "uint256",
                    "name": "",
                    "type": "uint256"
                }
            ],
            "stateMutability": "view",
            "type": "function"
        },
        {
            "inputs": [
                {
                    "internalType": "address",
                    "name": "_from",
                    "type": "address"
                },
                {
                    "internalType": "uint256",
                    "name": "_amount",
                    "type": "uint256"
                }
            ],
            "name": "burn",
            "outputs": [],
            "stateMutability": "nonpayable",
            "type": "function"
        },
        {
            "inputs": [],
            "name": "cap",
            "outputs": [
                {
                    "internalType": "uint256",
                    "name": "",
                    "type": "uint256"
                }
            ],
            "stateMutability": "view",
            "type": "function"
        },
        {
            "inputs": [],
            "name": "decimals",
            "outputs": [
                {
                    "internalType": "uint8",
                    "name": "",
                    "type": "uint8"
                }
            ],
            "stateMutability": "view",
            "type": "function"
        },
        {
            "inputs": [
                {
                    "internalType": "address",
                    "name": "",
                    "type": "address"
                }
            ],
            "name": "isBurner",
            "outputs": [
                {
                    "internalType": "bool",
                    "name": "",
                    "type": "bool"
                }
            ],
            "stateMutability": "view",
            "type": "function"
        },
        {
            "inputs": [
                {
                    "internalType": "address",
                    "name": "",
                    "type": "address"
                }
            ],
            "name": "isMinter",
            "outputs": [
                {
                    "internalType": "bool",
                    "name": "",
                    "type": "bool"
                }
            ],
            "stateMutability": "view",
            "type": "function"
        },
        {
            "inputs": [
                {
                    "internalType": "address",
                    "name": "_to",
                    "type": "address"
                },
                {
                    "internalType": "uint256",
                    "name": "_amount",
                    "type": "uint256"
                }
            ],
            "name": "mint",
            "outputs": [],
            "stateMutability": "nonpayable",
            "type": "function"
        },
        {
            "inputs": [],
            "name": "name",
            "outputs": [
                {
                    "internalType": "string",
                    "name": "",
                    "type": "string"
                }
            ],
            "stateMutability": "view",
            "type": "function"
        },
        {
            "inputs": [],
            "name": "owner",
            "outputs": [
                {
                    "internalType": "address",
                    "name": "",
                    "type": "address"
                }
            ],
            "stateMutability": "view",
            "type": "function"
        },
        {
            "inputs": [
                {
                    "internalType": "address",
                    "name": "_burner",
                    "type": "address"
                }
            ],
            "name": "removeBurner",
            "outputs": [],
            "stateMutability": "nonpayable",
            "type": "function"
        },
        {
            "inputs": [
                {
                    "internalType": "address",
                    "name": "_minter",
                    "type": "address"
                }
            ],
            "name": "removeMinter",
            "outputs": [],
            "stateMutability": "nonpayable",
            "type": "function"
        },
        {
            "inputs": [],
            "name": "renounceOwnership",
            "outputs": [],
            "stateMutability": "nonpayable",
            "type": "function"
        },
        {
            "inputs": [],
            "name": "symbol",
            "outputs": [
                {
                    "internalType": "string",
                    "name": "",
                    "type": "string"
                }
            ],
            "stateMutability": "view",
            "type": "function"
        },
        {
            "inputs": [
                {
                    "internalType": "uint256",
                    "name": "_amount",
                    "type": "uint256"
                }
            ],
            "name": "topUp",
            "outputs": [],
            "stateMutability": "nonpayable",
            "type": "function"
        },
        {
            "inputs": [],
            "name": "totalSupply",
            "outputs": [
                {
                    "internalType": "uint256",
                    "name": "",
                    "type": "uint256"
                }
            ],
            "stateMutability": "view",
            "type": "function"
        },
        {
            "inputs": [
                {
                    "internalType": "address",
                    "name": "to",
                    "type": "address"
                },
                {
                    "internalType": "uint256",
                    "name": "value",
                    "type": "uint256"
                }
            ],
            "name": "transfer",
            "outputs": [
                {
                    "internalType": "bool",
                    "name": "",
                    "type": "bool"
                }
            ],
            "stateMutability": "nonpayable",
            "type": "function"
        },
        {
            "inputs": [
                {
                    "internalType": "address",
                    "name": "from",
                    "type": "address"
                },
                {
                    "internalType": "address",
                    "name": "to",
                    "type": "address"
                },
                {
                    "internalType": "uint256",
                    "name": "value",
                    "type": "uint256"
                }
            ],
            "name": "transferFrom",
            "outputs": [
                {
                    "internalType": "bool",
                    "name": "",
                    "type": "bool"
                }
            ],
            "stateMutability": "nonpayable",
            "type": "function"
        },
        {
            "inputs": [
                {
                    "internalType": "address",
                    "name": "newOwner",
                    "type": "address"
                }
            ],
            "name": "transferOwnership",
            "outputs": [],
            "stateMutability": "nonpayable",
            "type": "function"
        }
    ],
    "bytecode": "0x60a06040523480156200001157600080fd5b50336b033b2e3c9fd0803ce80000006040518060400160405280600f81526020016e21b430b933b2b830b6102a37b5b2b760891b8152506040518060400160405280600681526020016543686172676560d01b8152508160039081620000789190620001ec565b506004620000878282620001ec565b50505080600003620000b45760405163392e1e2760e01b8152600060048201526024015b60405180910390fd5b6080526001600160a01b038116620000e357604051631e4fbdf760e01b815260006004820152602401620000ab565b620000ee81620000f5565b50620002b8565b600580546001600160a01b038381166001600160a01b0319831681179093556040519116919082907f8be0079c531659141344cd1fd0a4f28419497f9722a3daafe3b4186f6b6457e090600090a35050565b634e487b7160e01b600052604160045260246000fd5b600181811c908216806200017257607f821691505b6020821081036200019357634e487b7160e01b600052602260045260246000fd5b50919050565b601f821115620001e757600081815260208120601f850160051c81016020861015620001c25750805b601f850160051c820191505b81811015620001e357828155600101620001ce565b5050505b505050565b81516001600160401b0381111562000208576200020862000147565b62000220816200021984546200015d565b8462000199565b602080601f8311600181146200025857600084156200023f5750858301515b600019600386901b1c1916600185901b178555620001e3565b600085815260208120601f198616915b82811015620002895788860151825594840194600190910190840162000268565b5085821015620002a85787850151600019600388901b60f8161c191681555b5050505050600190811b01905550565b608051610d4b620002db600039600081816102260152610a290152610d4b6000f3fe608060405234801561001057600080fd5b50600436106101825760003560e01c806370a08231116100d85780639dc29fac1161008c578063dd62ed3e11610066578063dd62ed3e14610343578063f2fde38b1461037c578063f44637ba1461038f57600080fd5b80639dc29fac146102fa578063a9059cbb1461030d578063aa271e1a1461032057600080fd5b80638da5cb5b116100bd5780638da5cb5b146102c457806395d89b41146102df578063983b2d56146102e757600080fd5b806370a0823114610293578063715018a6146102bc57600080fd5b80633092afd51161013a57806340c10f191161011457806340c10f191461024a5780634334614a1461025d57806350017f3e1461028057600080fd5b80633092afd514610202578063313ce56714610215578063355274ea1461022457600080fd5b8063095ea7b31161016b578063095ea7b3146101ba57806318160ddd146101dd57806323b872dd146101ef57600080fd5b8063028468581461018757806306fdde031461019c575b600080fd5b61019a610195366004610bc1565b6103a2565b005b6101a46103f2565b6040516101b19190610be3565b60405180910390f35b6101cd6101c8366004610c31565b610484565b60405190151581526020016101b1565b6002545b6040519081526020016101b1565b6101cd6101fd366004610c5b565b61049e565b61019a610210366004610bc1565b6104c2565b604051601281526020016101b1565b7f00000000000000000000000000000000000000000000000000000000000000006101e1565b61019a610258366004610c31565b610512565b6101cd61026b366004610bc1565b60076020526000908152604090205460ff1681565b61019a61028e366004610c97565b610584565b6101e16102a1366004610bc1565b6001600160a01b031660009081526020819052604090205490565b61019a6105c6565b6005546040516001600160a01b0390911681526020016101b1565b6101a46105da565b61019a6102f5366004610bc1565b6105e9565b61019a610308366004610c31565b61063c565b6101cd61031b366004610c31565b6106a5565b6101cd61032e366004610bc1565b60066020526000908152604090205460ff1681565b6101e1610351366004610cb0565b6001600160a01b03918216600090815260016020908152604080832093909416825291909152205490565b61019a61038a366004610bc1565b6106b3565b61019a61039d366004610bc1565b6106f1565b6103aa610744565b6001600160a01b0381166103d15760405163d92e233d60e01b815260040160405180910390fd5b6001600160a01b03166000908152600760205260409020805460ff19169055565b60606003805461040190610ce3565b80601f016020809104026020016040519081016040528092919081815260200182805461042d90610ce3565b801561047a5780601f1061044f5761010080835404028352916020019161047a565b820191906000526020600020905b81548152906001019060200180831161045d57829003601f168201915b5050505050905090565b600033610492818585610771565b60019150505b92915050565b6000336104ac858285610783565b6104b7858585610801565b506001949350505050565b6104ca610744565b6001600160a01b0381166104f15760405163d92e233d60e01b815260040160405180910390fd5b6001600160a01b03166000908152600660205260409020805460ff19169055565b3360009081526006602052604090205460ff166105765760405162461bcd60e51b815260206004820152601460248201527f4f6e6c79206d696e7465722063616e206d696e7400000000000000000000000060448201526064015b60405180910390fd5b6105808282610860565b5050565b61058e3382610896565b60405181815233907f29e6701fa948667bae25d3e2ef7966f2a11754e98aa0dc52c55133430caee2df9060200160405180910390a250565b6105ce610744565b6105d860006108cc565b565b60606004805461040190610ce3565b6105f1610744565b6001600160a01b0381166106185760405163d92e233d60e01b815260040160405180910390fd5b6001600160a01b03166000908152600660205260409020805460ff19166001179055565b3360009081526007602052604090205460ff1661069b5760405162461bcd60e51b815260206004820152601460248201527f4f6e6c79206275726e65722063616e206275726e000000000000000000000000604482015260640161056d565b6105808282610896565b600033610492818585610801565b6106bb610744565b6001600160a01b0381166106e557604051631e4fbdf760e01b81526000600482015260240161056d565b6106ee816108cc565b50565b6106f9610744565b6001600160a01b0381166107205760405163d92e233d60e01b815260040160405180910390fd5b6001600160a01b03166000908152600760205260409020805460ff19166001179055565b6005546001600160a01b031633146105d85760405163118cdaa760e01b815233600482015260240161056d565b61077e8383836001610936565b505050565b6001600160a01b0383811660009081526001602090815260408083209386168352929052205460001981146107fb57818110156107ec57604051637dc7a0d960e11b81526001600160a01b0384166004820152602481018290526044810183905260640161056d565b6107fb84848484036000610936565b50505050565b6001600160a01b03831661082b57604051634b637e8f60e11b81526000600482015260240161056d565b6001600160a01b0382166108555760405163ec442f0560e01b81526000600482015260240161056d565b61077e838383610a0b565b6001600160a01b03821661088a5760405163ec442f0560e01b81526000600482015260240161056d565b61058060008383610a0b565b6001600160a01b0382166108c057604051634b637e8f60e11b81526000600482015260240161056d565b61058082600083610a0b565b600580546001600160a01b038381167fffffffffffffffffffffffff0000000000000000000000000000000000000000831681179093556040519116919082907f8be0079c531659141344cd1fd0a4f28419497f9722a3daafe3b4186f6b6457e090600090a35050565b6001600160a01b0384166109605760405163e602df0560e01b81526000600482015260240161056d565b6001600160a01b03831661098a57604051634a1406b160e11b81526000600482015260240161056d565b6001600160a01b03808516600090815260016020908152604080832093871683529290522082905580156107fb57826001600160a01b0316846001600160a01b03167f8c5be1e5ebec7d5bd14f71427d1e84f3dd0314c0f7b2291e5b200ac8c7c3b925846040516109fd91815260200190565b60405180910390a350505050565b610a16838383610a7b565b6001600160a01b03831661077e576002547f00000000000000000000000000000000000000000000000000000000000000009081811115610a745760405163279e7e1560e21b8152600481018290526024810183905260440161056d565b5050505050565b6001600160a01b038316610aa6578060026000828254610a9b9190610d1d565b90915550610b189050565b6001600160a01b03831660009081526020819052604090205481811015610af95760405163391434e360e21b81526001600160a01b0385166004820152602481018290526044810183905260640161056d565b6001600160a01b03841660009081526020819052604090209082900390555b6001600160a01b038216610b3457600280548290039055610b53565b6001600160a01b03821660009081526020819052604090208054820190555b816001600160a01b0316836001600160a01b03167fddf252ad1be2c89b69c2b068fc378daa952ba7f163c4a11628f55a4df523b3ef83604051610b9891815260200190565b60405180910390a3505050565b80356001600160a01b0381168114610bbc57600080fd5b919050565b600060208284031215610bd357600080fd5b610bdc82610ba5565b9392505050565b600060208083528351808285015260005b81811015610c1057858101830151858201604001528201610bf4565b506000604082860101526040601f19601f8301168501019250505092915050565b60008060408385031215610c4457600080fd5b610c4d83610ba5565b946020939093013593505050565b600080600060608486031215610c7057600080fd5b610c7984610ba5565b9250610c8760208501610ba5565b9150604084013590509250925092565b600060208284031215610ca957600080fd5b5035919050565b60008060408385031215610cc357600080fd5b610ccc83610ba5565b9150610cda60208401610ba5565b90509250929050565b600181811c90821680610cf757607f821691505b602082108103610d1757634e487b7160e01b600052602260045260246000fd5b50919050565b8082018082111561049857634e487b7160e01b600052601160045260246000fdfea164736f6c6343000815000a",
    "linkReferences": {},
    "deployedLinkReferences": {}
}