{
    "_format": "hh-sol-artifact-1",
    "contractName": "UserRewardClaim",
    "sourceName": "contracts/reward/UserRewardClaim.sol",
    "abi": [
        {
            "inputs": [
                {
                    "internalType": "address",
                    "name": "target",
                    "type": "address"
                }
            ],
            "name": "AddressEmptyCode",
            "type": "error"
        },
        {
            "inputs": [
                {
                    "internalType": "address",
                    "name": "account",
                    "type": "address"
                }
            ],
            "name": "AddressInsufficientBalance",
            "type": "error"
        },
        {
            "inputs": [],
            "name": "CoolDown",
            "type": "error"
        },
        {
            "inputs": [],
            "name": "FailedInnerCall",
            "type": "error"
        },
        {
            "inputs": [],
            "name": "InsufficientBalance",
            "type": "error"
        },
        {
            "inputs": [],
            "name": "InvalidInitialization",
            "type": "error"
        },
        {
            "inputs": [],
            "name": "NonNFTOwner",
            "type": "error"
        },
        {
            "inputs": [],
            "name": "NonNotifier",
            "type": "error"
        },
        {
            "inputs": [],
            "name": "NotInMerkle",
            "type": "error"
        },
        {
            "inputs": [],
            "name": "NotInitializing",
            "type": "error"
        },
        {
            "inputs": [
                {
                    "internalType": "address",
                    "name": "owner",
                    "type": "address"
                }
            ],
            "name": "OwnableInvalidOwner",
            "type": "error"
        },
        {
            "inputs": [
                {
                    "internalType": "address",
                    "name": "account",
                    "type": "address"
                }
            ],
            "name": "OwnableUnauthorizedAccount",
            "type": "error"
        },
        {
            "inputs": [
                {
                    "internalType": "address",
                    "name": "token",
                    "type": "address"
                }
            ],
            "name": "SafeERC20FailedOperation",
            "type": "error"
        },
        {
            "inputs": [],
            "name": "ZeroAddress",
            "type": "error"
        },
        {
            "anonymous": false,
            "inputs": [
                {
                    "indexed": true,
                    "internalType": "address",
                    "name": "to",
                    "type": "address"
                },
                {
                    "indexed": false,
                    "internalType": "uint256",
                    "name": "amount",
                    "type": "uint256"
                },
                {
                    "indexed": false,
                    "internalType": "uint256",
                    "name": "totalClaimedAmount",
                    "type": "uint256"
                }
            ],
            "name": "Claim",
            "type": "event"
        },
        {
            "anonymous": false,
            "inputs": [
                {
                    "indexed": false,
                    "internalType": "uint64",
                    "name": "version",
                    "type": "uint64"
                }
            ],
            "name": "Initialized",
            "type": "event"
        },
        {
            "anonymous": false,
            "inputs": [
                {
                    "indexed": true,
                    "internalType": "address",
                    "name": "oldNotifier",
                    "type": "address"
                },
                {
                    "indexed": true,
                    "internalType": "address",
                    "name": "newNotifier",
                    "type": "address"
                }
            ],
            "name": "NotifierChanged",
            "type": "event"
        },
        {
            "anonymous": false,
            "inputs": [
                {
                    "indexed": true,
                    "internalType": "address",
                    "name": "previousOwner",
                    "type": "address"
                },
                {
                    "indexed": true,
                    "internalType": "address",
                    "name": "newOwner",
                    "type": "address"
                }
            ],
            "name": "OwnershipTransferred",
            "type": "event"
        },
        {
            "inputs": [],
            "name": "charge",
            "outputs": [
                {
                    "internalType": "contract IERC20",
                    "name": "",
                    "type": "address"
                }
            ],
            "stateMutability": "view",
            "type": "function"
        },
        {
            "inputs": [
                {
                    "internalType": "uint256",
                    "name": "_quota",
                    "type": "uint256"
                },
                {
                    "internalType": "uint256",
                    "name": "_amount",
                    "type": "uint256"
                },
                {
                    "internalType": "bytes32[]",
                    "name": "_proof",
                    "type": "bytes32[]"
                }
            ],
            "name": "claim",
            "outputs": [],
            "stateMutability": "nonpayable",
            "type": "function"
        },
        {
            "inputs": [
                {
                    "internalType": "address",
                    "name": "",
                    "type": "address"
                }
            ],
            "name": "claimedAmount",
            "outputs": [
                {
                    "internalType": "uint256",
                    "name": "",
                    "type": "uint256"
                }
            ],
            "stateMutability": "view",
            "type": "function"
        },
        {
            "inputs": [
                {
                    "internalType": "address",
                    "name": "_token",
                    "type": "address"
                },
                {
                    "internalType": "uint256",
                    "name": "_amount",
                    "type": "uint256"
                },
                {
                    "internalType": "bool",
                    "name": "_isETH",
                    "type": "bool"
                }
            ],
            "name": "collect",
            "outputs": [],
            "stateMutability": "nonpayable",
            "type": "function"
        },
        {
            "inputs": [],
            "name": "cooldown",
            "outputs": [
                {
                    "internalType": "uint256",
                    "name": "",
                    "type": "uint256"
                }
            ],
            "stateMutability": "view",
            "type": "function"
        },
        {
            "inputs": [
                {
                    "internalType": "contract IERC20",
                    "name": "_token",
                    "type": "address"
                }
            ],
            "name": "initialize",
            "outputs": [],
            "stateMutability": "nonpayable",
            "type": "function"
        },
        {
            "inputs": [],
            "name": "lastNotifyTime",
            "outputs": [
                {
                    "internalType": "uint256",
                    "name": "",
                    "type": "uint256"
                }
            ],
            "stateMutability": "view",
            "type": "function"
        },
        {
            "inputs": [],
            "name": "notifier",
            "outputs": [
                {
                    "internalType": "address",
                    "name": "",
                    "type": "address"
                }
            ],
            "stateMutability": "view",
            "type": "function"
        },
        {
            "inputs": [],
            "name": "owner",
            "outputs": [
                {
                    "internalType": "address",
                    "name": "",
                    "type": "address"
                }
            ],
            "stateMutability": "view",
            "type": "function"
        },
        {
            "inputs": [],
            "name": "renounceOwnership",
            "outputs": [],
            "stateMutability": "nonpayable",
            "type": "function"
        },
        {
            "inputs": [],
            "name": "rewardMerkleRoot",
            "outputs": [
                {
                    "internalType": "bytes32",
                    "name": "",
                    "type": "bytes32"
                }
            ],
            "stateMutability": "view",
            "type": "function"
        },
        {
            "inputs": [
                {
                    "internalType": "bytes32",
                    "name": "_claimMerkleRoot",
                    "type": "bytes32"
                }
            ],
            "name": "setClaimMerkleRoot",
            "outputs": [],
            "stateMutability": "nonpayable",
            "type": "function"
        },
        {
            "inputs": [
                {
                    "internalType": "address",
                    "name": "_notifier",
                    "type": "address"
                }
            ],
            "name": "setNotifier",
            "outputs": [],
            "stateMutability": "nonpayable",
            "type": "function"
        },
        {
            "inputs": [
                {
                    "internalType": "address",
                    "name": "newOwner",
                    "type": "address"
                }
            ],
            "name": "transferOwnership",
            "outputs": [],
            "stateMutability": "nonpayable",
            "type": "function"
        }
    ],
    "bytecode": "0x608060405234801561001057600080fd5b50610c6b806100206000396000f3fe608060405234801561001057600080fd5b50600436106100ea5760003560e01c80638da5cb5b1161008c578063c4d66de811610066578063c4d66de8146101e5578063c67c8cae146101f8578063f2fde38b14610201578063fd1e29621461021457600080fd5b80638da5cb5b1461018f578063abbb4695146101bf578063ae0b51df146101d257600080fd5b8063508f4f7d116100c8578063508f4f7d14610162578063551619131461016b578063715018a61461017e578063787a08a61461018657600080fd5b806304e86903146100ef57806309276ea4146101225780633f8e29361461014d575b600080fd5b61010f6100fd366004610a9e565b60056020526000908152604090205481565b6040519081526020015b60405180910390f35b600154610135906001600160a01b031681565b6040516001600160a01b039091168152602001610119565b61016061015b366004610ac9565b610227565b005b61010f60045481565b600054610135906001600160a01b031681565b61016061028c565b61010f60025481565b7f9016d09d72d40fdae2fd8ceac6b6234c7706214fd39c1cd1e609a0528c199300546001600160a01b0316610135565b6101606101cd366004610a9e565b6102a0565b6101606101e0366004610b0b565b61032f565b6101606101f3366004610a9e565b6104ba565b61010f60035481565b61016061020f366004610a9e565b61060d565b610160610222366004610b8e565b610650565b61022f6106b4565b338115610272576040516001600160a01b0382169084156108fc029085906000818181858888f1935050505015801561026c573d6000803e3d6000fd5b50610286565b6102866001600160a01b038516828561070f565b50505050565b6102946106b4565b61029e600061077b565b565b6102a86106b4565b336102c65760405163d92e233d60e01b815260040160405180910390fd5b6001546040516001600160a01b038084169216907f98fe2b49bc6313cc9f62e93c052f707176f4200685b0e28bdd1f63408e9819cc90600090a36001805473ffffffffffffffffffffffffffffffffffffffff19166001600160a01b0392909216919091179055565b60405133606081901b6bffffffffffffffffffffffff19166020830152603482018690529060009060540160405160208183030381529060405280519060200120905060006103b58585808060200260200160405190810160405280939291908181526020018383602002808284376000920191909152505060045491508590506107f9565b9050806103d55760405163452c2df160e11b815260040160405180910390fd5b6001600160a01b0383166000908152600560205260408120546103f89089610bbd565b90508087111561041b57604051631e9acf1760e31b815260040160405180910390fd5b6001600160a01b03841660009081526005602052604081208054899290610443908490610bd0565b909155505060005461045f906001600160a01b0316338961070f565b6001600160a01b0384166000818152600560209081526040918290205482518b8152918201527f34fcbac0073d7c3d388e51312faf357774904998eeb8fca628b9e6f65ee1cbf7910160405180910390a25050505050505050565b7ff0c57e16840df040f15088dc2f81fe391c3923bec73e23a9662efc9c229c6a00805468010000000000000000810460ff16159067ffffffffffffffff166000811580156105055750825b905060008267ffffffffffffffff1660011480156105225750303b155b905081158015610530575080155b1561054e5760405163f92ee8a960e01b815260040160405180910390fd5b845467ffffffffffffffff19166001178555831561058257845468ff00000000000000001916680100000000000000001785555b61058b33610811565b6000805473ffffffffffffffffffffffffffffffffffffffff19166001600160a01b03881617905562015180600255831561060557845468ff000000000000000019168555604051600181527fc7f505b2f371ae2175ee4913f4499e1f2633a7b5936321eed1cdaeb6115181d29060200160405180910390a15b505050505050565b6106156106b4565b6001600160a01b03811661064457604051631e4fbdf760e01b8152600060048201526024015b60405180910390fd5b61064d8161077b565b50565b6001546001600160a01b0316331461067b5760405163ef819cf360e01b815260040160405180910390fd5b60025460035461068b9190610bd0565b4210156106ab5760405163636309c760e01b815260040160405180910390fd5b42600355600455565b336106e67f9016d09d72d40fdae2fd8ceac6b6234c7706214fd39c1cd1e609a0528c199300546001600160a01b031690565b6001600160a01b03161461029e5760405163118cdaa760e01b815233600482015260240161063b565b604080516001600160a01b038416602482015260448082018490528251808303909101815260649091019091526020810180517bffffffffffffffffffffffffffffffffffffffffffffffffffffffff1663a9059cbb60e01b179052610776908490610822565b505050565b7f9016d09d72d40fdae2fd8ceac6b6234c7706214fd39c1cd1e609a0528c199300805473ffffffffffffffffffffffffffffffffffffffff1981166001600160a01b03848116918217845560405192169182907f8be0079c531659141344cd1fd0a4f28419497f9722a3daafe3b4186f6b6457e090600090a3505050565b6000826108068584610885565b1490505b9392505050565b6108196108d4565b61064d81610922565b60006108376001600160a01b0384168361092a565b9050805160001415801561085c57508080602001905181019061085a9190610be3565b155b1561077657604051635274afe760e01b81526001600160a01b038416600482015260240161063b565b600081815b84518110156108ca576108b6828683815181106108a9576108a9610c00565b6020026020010151610938565b9150806108c281610c16565b91505061088a565b5090505b92915050565b7ff0c57e16840df040f15088dc2f81fe391c3923bec73e23a9662efc9c229c6a005468010000000000000000900460ff1661029e57604051631afcd79f60e31b815260040160405180910390fd5b6106156108d4565b606061080a83836000610967565b600081831061095457600082815260208490526040902061080a565b600083815260208390526040902061080a565b60608147101561098c5760405163cd78605960e01b815230600482015260240161063b565b600080856001600160a01b031684866040516109a89190610c2f565b60006040518083038185875af1925050503d80600081146109e5576040519150601f19603f3d011682016040523d82523d6000602084013e6109ea565b606091505b50915091506109fa868383610a04565b9695505050505050565b606082610a1957610a1482610a60565b61080a565b8151158015610a3057506001600160a01b0384163b155b15610a5957604051639996b31560e01b81526001600160a01b038516600482015260240161063b565b508061080a565b805115610a705780518082602001fd5b604051630a12f52160e11b815260040160405180910390fd5b6001600160a01b038116811461064d57600080fd5b600060208284031215610ab057600080fd5b813561080a81610a89565b801515811461064d57600080fd5b600080600060608486031215610ade57600080fd5b8335610ae981610a89565b9250602084013591506040840135610b0081610abb565b809150509250925092565b60008060008060608587031215610b2157600080fd5b8435935060208501359250604085013567ffffffffffffffff80821115610b4757600080fd5b818701915087601f830112610b5b57600080fd5b813581811115610b6a57600080fd5b8860208260051b8501011115610b7f57600080fd5b95989497505060200194505050565b600060208284031215610ba057600080fd5b5035919050565b634e487b7160e01b600052601160045260246000fd5b818103818111156108ce576108ce610ba7565b808201808211156108ce576108ce610ba7565b600060208284031215610bf557600080fd5b815161080a81610abb565b634e487b7160e01b600052603260045260246000fd5b600060018201610c2857610c28610ba7565b5060010190565b6000825160005b81811015610c505760208186018101518583015201610c36565b50600092019182525091905056fea164736f6c6343000815000a",
    "linkReferences": {},
    "deployedLinkReferences": {}
}